:020000040800F2
:1000000000070020CD010008E3100008410F0008A0
:10001000E1100008D3020008AD1400080000000041
:10002000000000000000000000000000E7100008D1
:10003000D502000800000000E5100008E9100008E3
:10004000E7010008E7010008E7010008E7010008F0
:10005000E7010008E7010008E7010008E7010008E0
:10006000E7010008E7010008E7010008E7010008D0
:10007000E7010008E7010008E7010008E7010008C0
:10008000E7010008E7010008E7010008E7010008B0
:10009000E7010008E7010008E7010008E7010008A0
:1000A000E7010008E7010008E7010008E701000890
:1000B000E7010008E7010008E7010008E701000880
:1000C000E7010008E7010008E7010008E701000870
:1000D000E7010008E7010008E7010008E701000860
:1000E000E7010008E7010008E7010008E701000850
:1000F000E7010008E7010008E7010008E701000840
:10010000E7010008E7010008E7010008E70100082F
:10011000E7010008E7010008E7010008E70100081F
:10012000E7010008E7010008E7010008E70100080F
:1001300000F002F800F03AF80AA090E8000C8244BF
:100140008344AAF10107DA4501D100F02FF8AFF29C
:10015000090EBAE80F0013F0010F18BFFB1A43F0A5
:1001600001031847D8130000F8130000103A24BF09
:1001700078C878C1FAD8520724BF30C830C144BF0C
:1001800004680C607047000000230024002500264E
:10019000103A28BF78C1FBD8520728BF30C148BFEA
:1001A0000B6070471FB51FBD10B510BD00F058F8AB
:1001B0001146FFF7F7FF01F08BF900F076F803B472
:1001C000FFF7F2FF03BC00F07DF80000094880470C
:1001D00009480047FEE7FEE7FEE7FEE7FEE7FEE729
:1001E000FEE7FEE7FEE7FEE704480549054A064B41
:1001F000704700004B110008310100080001002089
:100200000007002000030020000300204FF0000240
:1002100000B5134694469646203922BFA0E80C50FC
:10022000A0E80C50B1F12001BFF4F7AF090728BFD7
:10023000A0E80C5048BF0CC05DF804EB890028BF53
:1002400040F8042B08BF704748BF20F8022B11F07C
:10025000804F18BF00F8012B7047704770477047F8
:10026000754600F02BF8AE4605006946534620F06F
:100270000700854618B020B5FFF7B6FFBDE820405F
:100280004FF000064FF000074FF000084FF0000B52
:1002900021F00701AC46ACE8C009ACE8C009ACE805
:1002A000C009ACE8C0098D46704710B50446AFF3ED
:1002B00000802046BDE81040FFF781BF004870472E
:1002C0009C00002001491820ABBEFEE7260002007A
:1002D0007047FEE7704772B6FEE7000070B504464F
:1002E00000F010F90546601C02D004480078044470
:1002F00000F008F9401BA042FAD370BD00000020B6
:100300002DE9F84FDFF8C8910024A9F1040B23462A
:100310000F2709F1040AABF1040ED1E00125A54035
:1003200006EA0502AA4276D1DFF8A8C14E68A6EB1C
:100330000C0866452BD00DDC032E34D005DC36B31B
:10034000012E19D0022E2FD11BE0112E16D0122E05
:100350002AD119E0B8F5881F19D006DCB8F5803F1E
:1003600015D0B8F5801F1FD111E0B8F5001F0ED0D1
:10037000B8F5041F18D10AE0CB6815E0CB681B1D47
:1003800012E0CB6808330FE0CB680C330CE08B68CD
:100390002BB1012B4FF0080303D0456104E0042387
:1003A00002E0056100E00023FF2A01D8064601E0D3
:1003B00000F104064FEA840501D9A5F12005D6F81D
:1003C000008007FA05FC28EA0C0803FA05F548EA5C
:1003D0000508C6F800804D68ED0070D53E4DAE6949
:1003E00046F00106AE61AD6924F0030605F0010593
:1003F00000953A4D06EB050CDCF80850A607360FC1
:1004000007FA06F825EA0805DFF8D480404503D14D
:100410004FF0000825E052E0DFF8C880404502D1E7
:100420004FF001081DE0DFF8C080404502D14FF0D9
:10043000020816E0DFF8B480404502D14FF003080F
:100440000FE0DFF8AC80404502D14FF0040808E02F
:10045000DFF8A080404502D14FF0050801E04FF0E1
:10046000060808FA06F848EA0508CCF808804D683E
:10047000D9F80060ED024D4601D5164300E09643E1
:100480002E604D68DAF80060AD02554601D516437E
:1004900000E096432E604D68DBF80060AD035D46DA
:1004A00001D5164300E096432E604D68DEF80060EB
:1004B000ED03754601D5164300E096432E60641C9B
:1004C0000A681646E2407FF429AFBDE8F88F0000C5
:1004D000080401400000111000100240000001401B
:1004E00000080140000C01400010014000140140D0
:1004F00000180140001C01400AB101617047090465
:10050000FBE7000001488068704700000000002001
:100510000248816802781144816070470000002021
:10052000074810B5016841F010010160032000F098
:1005300067F80F2000F006F800F024F8002010BD46
:100540000020024070B50D4D04464FF47A712878B2
:10055000B1FBF0F00A490968B1FBF0F000F0CEFA07
:1005600048B9102C07D200222146501E00F028F86E
:1005700000206C6070BD012070BD000000000020F4
:100580000C0000200C4808B5816941F0010181612F
:10059000816901F001010091C16941F08051C1619F
:1005A000C06900F0805000900448416821F0E0618B
:1005B00041F00071416008BD0010024000000140A0
:1005C000F0B40E4B1B680C46C3F30223C3F10705BE
:1005D000042D00D90425191D072901D2002300E0AC
:1005E000DB1E012606FA05F1491E214099409E4076
:1005F000761E16403143F0BC00F059BF0CED00E010
:10060000064900F0070208684FF6FF03184040EA69
:100610000220034A10430860704700000CED00E020
:100620000000FA052DE9F0470F46050061D0434E62
:10063000306800F00700B84209D2306820F00700A7
:1006400038433060306800F00700B84251D1286864
:100650003B4C810712D5400703D5606840F4E06049
:1006600060602878000703D5606840F460506060DF
:100670006068A96820F0F000084360602878C0072F
:1006800028D06868012810D02168022810D0890776
:1006900000292EDA616821F0030101436160FFF750
:1006A00031FF804641F288390DE021688903EFE788
:1006B0008901EDE7FFF726FFA0EB0801494502D9C4
:1006C0000320BDE8F0876068696800F00C00B0EBBB
:1006D000810FEFD1306800F00700B8420BD93068C5
:1006E00020F0070038433060306800F00700B8425F
:1006F00001D00120E5E72878400705D56068E96862
:1007000020F4E060084360602878000706D5606840
:10071000296920F4605040EAC100606000F038F8B8
:100720006168084AC1F30311515CC840064908607A
:1007300006480068FFF706FF0020C2E700200240DD
:1007400000100240221500080C00002004000020C8
:100750000448054900684968044AC1F30221515C14
:10076000C84070470C0000200010024032150008FD
:100770000448054900684968044AC1F3C221515C34
:10078000C84070470C0000200010024032150008DD
:100790000E4A51680E4801F00C03042B11D0082BAF
:1007A0000FD10C48C1F38343C903C05C0AD551681B
:1007B000084AC1F34041921E515C054A5043B0FBC8
:1007C000F1F07047044948437047000000100240B0
:1007D00000127A001215000800093D002DE9F84FBB
:1007E000040070D02078C04DC00749D06868C0F3BD
:1007F0008100012807D06868C0F38100022809D170
:100800006868C00306D52868800339D56068002869
:10081000E7D035E06068B0F5803F0BD010B1B0F59F
:10082000A02F11D0286820F480302860286820F498
:10083000802002E0286840F480302860606890B131
:10084000FFF760FE06460AE0286840F48020286032
:10085000F0E700BFFFF756FE801B642873D82868B6
:100860008003F7D50CE0FFF74DFE064605E000BF1C
:10087000FFF748FE801B6428F0D828688003F7D46F
:1008800020789A4E80074FF001094FF0000839D5C3
:10089000686810F00C0F07D06868C0F38100022868
:1008A00009D16868C00306D42868800714D5206978
:1008B000012808D110E02069B0B1C6F80090FFF718
:1008C00021FE074605E00AE1FFF71CFEC01B0228D7
:1008D000C4D828688007F7D52868616920F0F80037
:1008E00040EAC10028600DE0C6F80080FFF70AFE6C
:1008F000074604E0FFF706FEC01B022823D828683D
:100900008007F7D4207800072CD57948A169D9B1A0
:10091000C0F80090FFF7F6FD074604E0FFF7F2FD90
:10092000C01B02280FD8686A8007F7D571484FF4BA
:10093000FA510068B0FBF1F0009000BF0098411E32
:100940000091FAD20EE080E0C0F80080FFF7DAFDF7
:10095000074604E0FFF7D6FDC01B022875D8686A79
:100960008007F7D42078400760D5E8690027C000E9
:1009700008D4E86940F08050E861E869012700F098
:10098000805000905C480168C90513D40168834613
:1009900041F480710160FFF7B5FD824606E000BFBB
:1009A000FFF7B0FDA0EB0A0064284ED8DBF800008A
:1009B000C005F5D5E06801280AD008B1052813D094
:1009C000286A20F001002862286A20F0040002E072
:1009D000286A40F001002862E06841F2883B98B143
:1009E000FFF790FD82460BE0286A40F00400286281
:1009F000EEE700BFFFF786FDA0EB0A0159455AD884
:100A0000286A8007F6D50CE0FFF77CFD824605E0FA
:100A1000FFF778FDA0EB0A0159454CD8286A8007FA
:100A2000F6D41FB1E86920F08050E861E06988B32E
:100A30006968C1F38101022944D00228C6F86080A8
:100A400004D0FFF75FFD044638E034E0FFF75AFDBD
:100A5000074604E0FFF756FDC01B02282BD8286884
:100A60008001F7D4206AB0F5803F05D16868A1689D
:100A700020F4003008436860D4E90801084369683D
:100A800021F4741108436860C6F86090FFF73AFDDE
:100A9000044606E025E000BFFFF734FD001B0228F6
:100AA00009D828688001F7D51BE000BFFFF72AFDB1
:100AB000001B022802D90320BDE8F88F28688001B6
:100AC000F4D40EE00128F7D06868226A00F480317F
:100AD000914204D1616A00F47010884201D0012073
:100AE000EAE70020E8E70000001002400000424270
:100AF000800442420C0000200070004010B5401EEF
:100B0000B0F1807F01D3012010BD4FF0E02460617F
:100B10000F21601700F0CBFC0020A06107202061AE
:100B2000002010BD70B590F83C20012A2CD0012483
:100B300080F83C40022280F83D2003685A689D6896
:100B400022F070060A6832435A60104B02689A42DB
:100B50000ED00F4B9A420BD0B2F1804F08D00D4B04
:100B60009A4205D00C4B9A4202D00C4B9A4204D1C7
:100B7000496825F080031943916080F83D400021C9
:100B800080F83C10084670BD022070BD002C01406A
:100B9000003401400004004000080040000C004008
:100BA00010B5040003D094F83D0010B107E0012017
:100BB00010BD002084F83C00204600F01FF8022001
:100BC00084F83D00211D206800F0C0FA012084F85F
:100BD000460084F83E0084F83F0084F8400084F822
:100BE000410084F8420084F8430084F8440084F80B
:100BF000450084F83D00002010BD000008B50068E5
:100C0000B0F1804F08D10548C16941F00101C161CF
:100C1000C06900F00100009008BD00000010024013
:100C200070B5044690F83C000025012817D0012635
:100C300084F83C60022084F83D002068826822F03D
:100C4000770222F47F4282600868502838D00DDC99
:100C500020284FD005DC90B3102811D14AE00220A3
:100C600070BD302846D040280AD13BE060282FD004
:100C700070280DD0B0F5805F03D0B0F5005F12D0C2
:100C8000012584F83D60002084F83C00284670BDB2
:100C9000CB68D1E90121206800F0A6FA20688168BC
:100CA00041F0770109E0CB68D1E90121206800F02B
:100CB0009BFA2068816841F480418160E1E719E096
:100CC000CA684968206800F063FB5021206806E08C
:100CD000CA684968206800F06CFB6021206800F059
:100CE0008DFACEE7CA684968206800F051FB4021C0
:100CF0002068F4E7226801461046F0E700B585B0A9
:100D0000002100910191029103910068B0F1804FA0
:100D100011D10A48816941F0040181618069694605
:100D200000F0040004900F20009002200190039036
:100D30000348FFF7E5FA05B000BD000000100240CF
:100D40000008014070B5044690F83C0000260D46AE
:100D500001280FD0012084F83C006AB1042A1DD07C
:100D6000082A2FD00C2A3FD00126002084F83C000E
:100D7000304670BD022070BD206800F047FA206840
:100D8000816941F0080181612068816921F00401D5
:100D90008161206881692A69114311E0206800F0AF
:100DA00065FA2068816941F4006181612068816988
:100DB00021F480618161206881692A6941EA022108
:100DC0008161D2E7206800F087FA2068C16941F0AC
:100DD0000801C1612068C16921F00401C161206876
:100DE000C1692A69114311E0206800F0A9FA20685E
:100DF000C16941F40061C1612068C16921F4806169
:100E0000C1612068C1692A6941EA0221C161ACE778
:100E100010B5040003D094F83D0010B107E00120A4
:100E200010BD002084F83C00204600F01EF802208F
:100E300084F83D00211D206800F088F9012084F825
:100E4000460084F83E0084F83F0084F8400084F8AF
:100E5000410084F8420084F8430084F8440084F898
:100E6000450084F83D00002010BD704770B50400B7
:100E700004D094F83D00002510B106E0012070BDBB
:100E800084F83C50204600F01BF8022084F83D0016
:100E9000204600F0A1FA2068016921F48041016137
:100EA0002068416921F02A0141612068C16841F44C
:100EB0000051C1602564012084F83D00002070BD10
:100EC00030B585B000240094019402940394006826
:100ED000174988422AD11748C16941F40031C161DC
:100EE000C16901F400310491816941F020018161FF
:100EF0008069114D00F020000490A0200090022095
:100F000001900320039069462846FFF7F9F9402035
:100F1000CDE90004694628460294FFF7F1F9074835
:100F2000416841F0E06141F00801416005B030BD29
:100F30000044004000100240001401400000014045
:100F4000FEE700002DE9F04186B00024204800941F
:100F5000019402940394816941F0040181618169E3
:100F600001F004010491816941F0200181618169EE
:100F700001F020010491816941F0080181618069DB
:100F8000144F00F0080004900022F0213846FFF7CB
:100F9000B3FADFF84480002220214046FFF7ACFA84
:100FA000F02001250226CDE90005CDE9024669467B
:100FB0003846FFF7A5F92020CDE90005CDE9024626
:100FC00069464046FFF79CF906B0BDE8F081000095
:100FD0000010024000080140000C014010B58EB026
:100FE00000240794089409940A940B941C216846E1
:100FF0000C94FFF70BF92A484FF08041016047211C
:10100000C0E90114F921C0E9031480218161FFF7CF
:10101000C7FD08B1FFF75FF94FF48050079007A9AB
:101020001F48FFF7FDFD08B1FFF755F91C48FFF712
:10103000EFFE08B1FFF74FF90B940BA918480C9479
:10104000FFF770FD08B1FFF746F96020CDE9000415
:1010500002940022694612480494FFF773FE08B117
:10106000FFF739F9042269460D48FFF76BFE08B116
:10107000FFF731F9082269460948FFF763FE08B116
:10108000FFF729F90C2269460548FFF75BFE08B116
:10109000FFF721F90248FFF731FE0EB010BD000046
:1010A000100000200D4810B50B4901604FF4E131EC
:1010B0004160002181600C22C160C0E9041281619D
:1010C000C1610162FFF7D2FE002803D0BDE81040E5
:1010D000FFF701B910BD0000004400405800002097
:1010E000FEE7FEE770477047FFF712BA30B58FB0E2
:1010F00028216846FFF78AF814210AA8FFF786F826
:1011000001210804CDE90010002402940225049175
:10111000CDE907504FF4E01009906846FFF75EFBF9
:1011200008B172B6FEE70F20CDE90A054FF48060E2
:10113000CDE90C4002210AA80E94FFF773FA0028AB
:1011400001D072B6FEE70FB030BD7047F0B502684F
:10115000204C214D214E224F224B4FF0804CA0427B
:1011600009D0984207D0604505D0A84203D0B042CC
:1011700001D0B84204D122F0700E4A6842EA0E0251
:10118000A04209D0984207D0604505D0A84203D0BC
:10119000B04201D0B84203D122F44075CA682A4354
:1011A0004D6922F080022A4302608A68C2620A689E
:1011B0008262A04201D0984201D1096901630121F4
:1011C00041610169C90703D0016921F00101016191
:1011D000F0BD0000002C0140000400400008004069
:1011E000000C00400034014010B5846842EA03223C
:1011F00024F47F440A432243826010BD826822F0B7
:1012000070020A4342F0070181607047F0B5036A3B
:10121000026A22F00102026242688469124E24F0DE
:1012200073050C682C4323F002058B682B430D4D8E
:10123000A84201D0B04205D123F00807CB683B4358
:1012400023F00403A84201D0B04205D14D6922F435
:10125000407215438A692A43426084614968416348
:101260000362F0BD002C014000340140F0B5026A79
:10127000036A23F010030362436884690D6824F451
:10128000E64444EA05248D6822F0200242EA051271
:101290000F4D104EA84201D0B04206D1CF6822F0C7
:1012A000800242EA071222F04002A84201D0B04276
:1012B00007D14D6923F4406343EA85038D6943EA0E
:1012C000850343608461496881630262F0BD000068
:1012D000002C014000340140F0B5026A036A23F497
:1012E000807303624368C46922F4007224F07305BA
:1012F0000C68124E2C438D6842EA05220E4DA8421E
:1013000001D0B04206D1CF6822F4006242EA07223F
:1013100022F48062A84201D0B04207D14D6923F483
:10132000405343EA05138D6943EA05134360C461E2
:101330004968C1630262F0BD002C014000340140E5
:1013400030B5046A026A22F4805202624268C369BC
:101350000D6823F4E64343EA05238D6824F4005422
:1013600044EA0534084DA84202D0084DA84204D1F1
:101370004D6922F4804242EA85124260C3614968A5
:101380000164046230BD0000002C014000340140C3
:1013900010B5036A046A24F001040462846924F02D
:1013A000F00444EA021423F00A020A438461026250
:1013B00010BD10B5036A046A24F010040462846945
:1013C00023F0A00324F4704444EA023243EA0111FA
:1013D0008261016210BD00002DE9F0410446006801
:1013E000C16821F00C01C16020680169D4E90623BD
:1013F0001A43E568236A21F47C512B431A430A43BC
:1014000042F4006101612268D16841F20C608143BD
:101410002369A068184363690B431843D0602068B0
:10142000416921F4407141611F49206864253226D9
:10143000884202D1FFF79CF901E0FFF789F900EB40
:10144000C00101EB001160686FF0180C8000B1FB67
:10145000F0F3B3FBF5F3B1FBF0F7B1FBF0F203FBF4
:101460000CF307EB830306EB0313B2FBF5F2B3FBBC
:10147000F5F3120103F0F00302EB4302B1FBF0F3CA
:10148000B1FBF0F0B0FBF5F000FB0CF003EB8000DB
:1014900006EB0010B0FBF5F0216800F00F001044DF
:1014A0008860BDE8F081000000380140FEE70907D0
:1014B000090E002804DB00F1E02080F800147047DA
:1014C00000F00F0000F1E02080F8141D70470000CC
:1014D000FFF726F8FFF70AFEFFF734FDFFF77EFD62
:1014E000FFF7E0FD094D4FF4FA7401222021284650
:1014F000FFF702F82046FEF7F1FE002220212846E1
:10150000FEF7FAFF2046FEF7E9FEEEE7000C014089
:10151000010202030405060708090A0B0C0D0E0F51
:101520001010000000000000000001020304060784
:101530000809000000000102030400005C15000817
:1015400000000020100000006C0100086C1500086D
:1015500010000020F00600008801000801000000D3
:0C156000100000000000000000127A00E3
:0400000508000131BD
:00000001FF
